{
    "_format": "hh-sol-artifact-1",
    "contractName": "Escrow",
    "sourceName": "contracts/Escrow.sol",
    "abi": [
        {
            "inputs": [
                {
                    "internalType": "address",
                    "name": "_arbiter",
                    "type": "address"
                },
                {
                    "internalType": "address",
                    "name": "_beneficiary",
                    "type": "address"
                }
            ],
            "stateMutability": "payable",
            "type": "constructor"
        },
        {
            "anonymous": false,
            "inputs": [
                {
                    "indexed": false,
                    "internalType": "uint256",
                    "name": "",
                    "type": "uint256"
                }
            ],
            "name": "Approved",
            "type": "event"
        },
        {
            "inputs": [],
            "name": "approve",
            "outputs": [],
            "stateMutability": "nonpayable",
            "type": "function"
        },
        {
            "inputs": [],
            "name": "arbiter",
            "outputs": [
                {
                    "internalType": "address",
                    "name": "",
                    "type": "address"
                }
            ],
            "stateMutability": "view",
            "type": "function"
        },
        {
            "inputs": [],
            "name": "beneficiary",
            "outputs": [
                {
                    "internalType": "address",
                    "name": "",
                    "type": "address"
                }
            ],
            "stateMutability": "view",
            "type": "function"
        },
        {
            "inputs": [],
            "name": "checkTotalBalance",
            "outputs": [
                {
                    "internalType": "uint256",
                    "name": "",
                    "type": "uint256"
                }
            ],
            "stateMutability": "view",
            "type": "function"
        },
        {
            "inputs": [],
            "name": "depositor",
            "outputs": [
                {
                    "internalType": "address",
                    "name": "",
                    "type": "address"
                }
            ],
            "stateMutability": "view",
            "type": "function"
        },
        {
            "inputs": [],
            "name": "isApproved",
            "outputs": [
                {
                    "internalType": "bool",
                    "name": "",
                    "type": "bool"
                }
            ],
            "stateMutability": "view",
            "type": "function"
        },
        {
            "stateMutability": "payable",
            "type": "receive"
        }
    ],
    "bytecode": "0x608060405260405161090b38038061090b83398181016040528101906100259190610151565b816000806101000a81548173ffffffffffffffffffffffffffffffffffffffff021916908373ffffffffffffffffffffffffffffffffffffffff16021790555080600160006101000a81548173ffffffffffffffffffffffffffffffffffffffff021916908373ffffffffffffffffffffffffffffffffffffffff16021790555033600260006101000a81548173ffffffffffffffffffffffffffffffffffffffff021916908373ffffffffffffffffffffffffffffffffffffffff1602179055505050610191565b600080fd5b600073ffffffffffffffffffffffffffffffffffffffff82169050919050565b600061011e826100f3565b9050919050565b61012e81610113565b811461013957600080fd5b50565b60008151905061014b81610125565b92915050565b60008060408385031215610168576101676100ee565b5b60006101768582860161013c565b92505060206101878582860161013c565b9150509250929050565b61076b806101a06000396000f3fe6080604052600436106100595760003560e01c806312424e3f1461013857806328f371aa1461014f57806338af3eed1461017a578063c7c4ff46146101a5578063fe25e00a146101d0578063fe9882da146101fb57610133565b3661013357600260009054906101000a900473ffffffffffffffffffffffffffffffffffffffff1673ffffffffffffffffffffffffffffffffffffffff163373ffffffffffffffffffffffffffffffffffffffff16146100ee576040517f08c379a00000000000000000000000000000000000000000000000000000000081526004016100e5906104c5565b60405180910390fd5b60003411610131576040517f08c379a000000000000000000000000000000000000000000000000000000000815260040161012890610531565b60405180910390fd5b005b600080fd5b34801561014457600080fd5b5061014d610226565b005b34801561015b57600080fd5b506101646103dd565b604051610171919061056c565b60405180910390f35b34801561018657600080fd5b5061018f6103f0565b60405161019c91906105c8565b60405180910390f35b3480156101b157600080fd5b506101ba610416565b6040516101c791906105c8565b60405180910390f35b3480156101dc57600080fd5b506101e561043c565b6040516101f291906105c8565b60405180910390f35b34801561020757600080fd5b50610210610460565b60405161021d91906105fc565b60405180910390f35b60008054906101000a900473ffffffffffffffffffffffffffffffffffffffff1673ffffffffffffffffffffffffffffffffffffffff163373ffffffffffffffffffffffffffffffffffffffff16146102b4576040517f08c379a00000000000000000000000000000000000000000000000000000000081526004016102ab90610663565b60405180910390fd5b60004790506000600160009054906101000a900473ffffffffffffffffffffffffffffffffffffffff1673ffffffffffffffffffffffffffffffffffffffff1682604051610301906106b4565b60006040518083038185875af1925050503d806000811461033e576040519150601f19603f3d011682016040523d82523d6000602084013e610343565b606091505b5050905080610387576040517f08c379a000000000000000000000000000000000000000000000000000000000815260040161037e90610715565b60405180910390fd5b7f3ad93af63cb7967b23e4fb500b7d7d28b07516325dcf341f88bebf959d82c1cb826040516103b691906105fc565b60405180910390a16001600260146101000a81548160ff0219169083151502179055505050565b600260149054906101000a900460ff1681565b600160009054906101000a900473ffffffffffffffffffffffffffffffffffffffff1681565b600260009054906101000a900473ffffffffffffffffffffffffffffffffffffffff1681565b60008054906101000a900473ffffffffffffffffffffffffffffffffffffffff1681565b600047905090565b600082825260208201905092915050565b7f4e6f74204465706f7369746f7200000000000000000000000000000000000000600082015250565b60006104af600d83610468565b91506104ba82610479565b602082019050919050565b600060208201905081810360008301526104de816104a2565b9050919050565b7f496e76616c696420416d6f756e74000000000000000000000000000000000000600082015250565b600061051b600e83610468565b9150610526826104e5565b602082019050919050565b6000602082019050818103600083015261054a8161050e565b9050919050565b60008115159050919050565b61056681610551565b82525050565b6000602082019050610581600083018461055d565b92915050565b600073ffffffffffffffffffffffffffffffffffffffff82169050919050565b60006105b282610587565b9050919050565b6105c2816105a7565b82525050565b60006020820190506105dd60008301846105b9565b92915050565b6000819050919050565b6105f6816105e3565b82525050565b600060208201905061061160008301846105ed565b92915050565b7f596f7520617265206e6f74207468652061726269746572000000000000000000600082015250565b600061064d601783610468565b915061065882610617565b602082019050919050565b6000602082019050818103600083015261067c81610640565b9050919050565b600081905092915050565b50565b600061069e600083610683565b91506106a98261068e565b600082019050919050565b60006106bf82610691565b9150819050919050565b7f4661696c656420746f2073656e64204574686572000000000000000000000000600082015250565b60006106ff601483610468565b915061070a826106c9565b602082019050919050565b6000602082019050818103600083015261072e816106f2565b905091905056fea2646970667358221220aac80b41431117fa3248fc33419f0a050ebde41969f220820802b5ed7c9e952764736f6c63430008120033",
    "linkReferences": {},
    "deployedLinkReferences": {}
}